:020000040800F2
:100000000000082465150008251200082B120008BE
:1000100031120008371200083D12000800000000ED
:1000200000000000000000000000000041BC0008CB
:10003000431200080000000091BE0008F18700088C
:10004000B5150008B5150008B5150008B515000868
:10005000B5150008B5150008B5150008B515000858
:10006000B5150008B5150008B5150008B515000848
:10007000B5150008B5150008B5150008B515000838
:10008000B5150008B5150008B5150008511200088F
:1000900065120008B5150008B5150008B51500086B
:1000A000B5150008B5150008B5150008B515000808
:1000B000B5150008B5150008B5150008B5150008F8
:1000C000B5150008B5150008B5150008B5150008E8
:1000D000B5150008B5150008B5150008B5150008D8
:1000E000B5150008B515000800000000B51500089A
:1000F000B5150008B5150008B5150008B5150008B8
:10010000B5150008B5150008B5150008B5150008A7
:10011000B5150008B515000879120008B5150008D6
:10012000B5150008B5150008B5150008B515000887
:10013000B51500088D120008B5150008B5150008A2
:1001400000000000000000000000000000000000AF
:10015000B5150008B5150008B5150008B515000857
:10016000B5150008B5150008B5150008B515000847
:10017000B5150008B5150008B5150008B515000837
:10018000B5150008B5150008B5150008B515000827
:10019000B5150008B5150008B5150008B515000817
:1001A000B5150008B5150008B5150008B515000807
:1001B000B5150008B5150008B5150008B5150008F7
:1001C000B5150008B5150008B5150008B5150008E7
:1001D000B5150008B5150008B5150008B5150008D7
:1001E000B5150008B5150008B5150008B5150008C7
:1001F000B5150008B5150008B5150008B5150008B7
:10020000B5150008B5150008B5150008B5150008A6
:10021000B5150008B5150008B5150008B515000896
:10022000B5150008B5150008B51500080000000058
:10023000B5150008B515000800000000B515000848
:10024000B5150008B5150008B5150008B515000866
:10025000B5150008B5150008B5150008B515000856
:10026000B5150008B5150008B5150008B515000846
:10027000B5150008B5150008B51500080000000008
:10028000B5150008B5150008B515000800000000F8
:0802900000000000B515000894
:1002A00010B5054C237833B9044B13B10448AFF3B0
:1002B00000800123237010BD9C000024000000007A
:1002C000F899010808B5034B1BB103490348AFF384
:1002D000008008BD00000000A0000024F89901087B
:1002E00010F8012B11F8013B012A28BF9A42F7D0E0
:1002F000D01A7047034613F8012B002AFBD1181AB5
:1003000001387047000000000000000000000000FD
:1003100001F0FF01102A2BDB10F0070F08D010F8B6
:10032000013B013A8B422DD010F0070F42B3F6D1BA
:10033000F0B441EA012141EA014122F007047FF0D3
:1003400000070023F0E80256083C85EA010586EA2A
:10035000010685FA47F5A3FA87F586FA47F6A5FA66
:1003600087F68EB9EED1F0BC01F0FF0102F0070272
:1003700032B110F8013B013A83EA010313B1F8D11D
:100380000020704701387047002D06BF35460338FE
:10039000073815F0010F07D1013015F4807F02BF37
:1003A000013015F4C03F0130F0BC0138704700BF88
:1003B00080B582B000AF786039603B6803F001031C
:1003C000002B0AD0074B084A4021786803F068FCEC
:1003D00000220121786803F0D1FD00BF0837BD4637
:1003E00080BD00BF300100240001002480B584B02E
:1003F00000AF7860684B00221A60674B00225A6099
:10040000654B00229A60644B0122DA60624B4FF424
:10041000F1621A61604B40F28F725A615E4B0022AA
:100420009A615D495D4803F03FFB002201215B4872
:1004300003F0A4FD5A4B40F28A721A60584B002216
:100440005A60574B00229A60554B4FF40022DA60F5
:10045000534B00221A61524B00225A61504B00222A
:100460009A614F4B0022DA614D4B00221A624B48D1
:1004700003F090FB4FF47A7008F0C6FA0023FB7388
:10048000FB7B08221946474818F0CDFAFB7B013365
:10049000FB73454B1B68A3F5F163072B62D801A2E0
:1004A00052F823F0C5040008D9040008ED04000840
:1004B0000105000815050008290500083D0500088C
:1004C00051050008384B1B68354A1360364B1B68D2
:1004D0000133354A13604EE0334B1B68304A1360DA
:1004E000314B1B680133304A136044E02E4B1B68CC
:1004F0002B4A13602C4B1B6801332B4A13603AE0E4
:10050000294B1B68264A1360274B1B680133264A78
:10051000136030E0244B1B68214A1360224B1B6898
:100520000133214A136026E01F4B1B681C4A1360ED
:100530001D4B1B6801331C4A13601CE01A4B1B68DF
:10054000174A1360184B1B680133174A136012E0F7
:10055000154B1B68124A1360134B1B680133124A78
:10056000136008E0104B4FF4F1621A600E4B1B68E9
:100570000B4A136000BF0B4A0949084803F035FBDA
:100580000346002B04D0094B1B680133074A136054
:10059000642008F039FA73E7BC000024FC01002451
:1005A000DC0000242801002400000024380100247D
:1005B00080B582B000AF78605A4B00221A60594B68
:1005C00000225A60574B00229A60564B0222DA6092
:1005D000544B4FF4F1621A61524B40F28F725A61E0
:1005E000504B00229A614F494F4803F05DFA0022B8
:1005F00010214D4803F0C2FC4C4B4FF4F2621A60DC
:100600004A4B00225A60494B00229A60474B4FF4F4
:100610000022DA60454B00221A61444B00225A61E5
:10062000424B00229A61414B0022DA613F4B00228B
:100630001A623D4803F0AEFA4FF47A7008F0E4F91C
:100640003B4B3C4A4121384803F02AFB0346002B30
:1006500005D0394B1B680133374A136058E0354BDE
:100660001B68A3F5F163072B51D801A252F823F0C0
:10067000910600089F060008AF060008BF060008A4
:10068000CF060008DF060008EF060008FF06000896
:100690002A4B274A92E8030083E8030038E0274BFF
:1006A000234A083392E8030083E8030030E0234B39
:1006B0001F4A103392E8030083E8030028E01F4B31
:1006C0001B4A183392E8030083E8030020E01B4B29
:1006D000174A203392E8030083E8030018E0174B21
:1006E000134A283392E8030083E8030010E0134B19
:1006F0000F4A303392E8030083E8030008E00F4B11
:100700000B4A383392E8030083E8030000E000BF9F
:1007100000221021044803F031FC052008F074F990
:100720008EE700BF800100249C020024A001002469
:10073000EC010024C4010024F40100244001002441
:1007400080B5B8B000AF786007F10C03CA22002171
:10075000184618F068F964237B737B233B730223EC
:10076000BB733B7C43F080033B747B2387F8D5301D
:10077000642008F049F9874BBB6015F0F3FBC7F81C
:10078000DC0007F108034DF26F721946D7F8DC0060
:1007900015F07AFB0023C7F8D8307F4B1B7C87F815
:1007A0005D307D4B5B7C87F85C307B4B9B7C87F8B6
:1007B0005B30794B1B7D87F85F30774B5B7D87F82B
:1007C0005E30754B9B7D87F86030734BDB7D87F81F
:1007D0006130714B1B7E87F867306F4B5B7E87F80B
:1007E00066306D4B9B7E87F865306B4B1B7F87F8BF
:1007F0006930694B5B7F87F86830674B9B7F87F870
:100800006A30654BDB7F87F86B30634B93F82030A1
:1008100087F87130604B93F8213087F870305E4B69
:1008200093F8223087F86F305B4B93F8243087F8C9
:100830007330594B93F8253087F87230564B93F844
:10084000263087F87430544B93F8273087F875308A
:10085000514B93F8283087F87B304F4B93F8293071
:1008600087F87A304C4B93F82A3087F879304A4B26
:1008700093F82C3087F87D30474B93F82D3087F86C
:100880007C30454B93F82E3087F87E30424B93F8FE
:100890002F3087F87F30404B93F8303087F8853021
:1008A0003D4B93F8313087F884303B4B93F832302E
:1008B00087F88330384B93F8343087F88730364BDD
:1008C00093F8353087F88630334B93F8363087F815
:1008D0008830314B93F8373087F889302E4B93F8B6
:1008E000383087F88F302C4B93F8393087F88E30BA
:1008F000294B93F83A3087F88D30274B93F83C30EA
:1009000087F89130244B93F83D3087F89030224B94
:1009100093F83E3087F892301F4B93F83F3087F8BA
:10092000933007F10C030A334022FF21184618F0D8
:100930007AF84FF42072CA2136200DF00FFFC7F865
:10094000D800D7F8D830002B20D03B7CC3F3060367
:10095000DBB20133DBB203F07F03DAB23B7C62F33C
:1009600006033B74D7F8D8305B68184607F10C03D0
:10097000CA22194618F049F8D7F8D810D7F8DC0081
:1009800015F010F8D7F8D8000EF0CCF9142008F0C4
:100990003BF802E7C0A8647B4001002480B584B026
:1009A00000AF00F081FA494B5B6903F40033002B80
:1009B0001BD1BFF34F8F00BFBFF36F8F00BF434BFF
:1009C0000022C3F85022BFF34F8F00BFBFF36F8FD9
:1009D00000BF3E4B5B693D4A43F400335361BFF3B4
:1009E0004F8F00BFBFF36F8F00E000BF374B5B69D5
:1009F00003F48033002B38D1344B0022C3F8842019
:100A0000BFF34F8F00BF314BD3F88030FB60FB68E2
:100A10005B0BC3F30E03BB60FB68DB08C3F3090386
:100A20007B60BB685A0143F6E07313407A68920713
:100A300026491343C1F860327B685A1E7A60002B46
:100A4000EFD1BB685A1EBA60002BE5D1BFF34F8FC0
:100A500000BF1E4B5B691D4A43F480335361BFF3F3
:100A60004F8F00BFBFF36F8F00E000BF00F004FFA7
:100A700000F046F800F088F900F0BCF800F01EF92C
:100A800007F0D0FE124A0021124807F02AFF034661
:100A9000114A1360114A0021114807F022FF034652
:100AA000104A1360104A0021104807F01AFF03464D
:100AB0000F4A13600F4A00210F4807F012FF034648
:100AC0000E4A136007F0D2FEFEE700BF00ED00E023
:100AD00020C801088D0E00083C030024FCC7010853
:100AE00041070008F8010024B4C70108ED0300081D
:100AF000B8000024D8C70108B10500083C01002453
:100B000080B59CB000AF07F124034C2200211846A9
:100B100017F089FF3B1D20220021184617F083FFA4
:100B2000022004F07DF900233B60304BDB6A2F4A42
:100B300023F00103D3622D4BDB6A03F001033B601A
:100B40002B4B9B692A4A43F440439361284B9B6992
:100B500003F440433B603B6800BF254B9B6903F4B3
:100B60000053B3F5005FF8D101237B624FF480336B
:100B7000BB620223BB640223FB6403233B65642343
:100B80007B650223BB651023FB6502233B660C23B8
:100B90007B660023BB660023FB6607F1240318462F
:100BA00004F078F90346002B01D000F0CDF93F2383
:100BB0007B600323BB600023FB6008233B61402371
:100BC0007B614023BB614FF48063FB6140233B6248
:100BD0003B1D0221184604F0B7FD0346002B01D04F
:100BE00000F0B2F900BF7037BD4680BD0004005868
:100BF0000048025880B500AF2E4B2F4A1A602D4B8B
:100C000000229A602B4B0022DA602A4B00221A74D1
:100C1000284B00225A74274B00229A74254B192224
:100C20005A61244B01229A61224B0622DA61214B40
:100C300009221A621F4B19225A621E4B01229A6224
:100C40001C4B0D22DA621B4B02221A63194B002245
:100C50005A63184B01229A63164B0022DA63154B34
:100C600002221A64134B04225A64124B00229A6423
:100C7000104B0422DA640F4B00221A650D4B04223C
:100C80005A650C4B00229A650A4B0022DA65094B23
:100C900001221A66074B00225A66064B04229A6606
:100CA000044802F023FD0346002B01D000F04CF96C
:100CB00000BF80BDFC01002400A0004080B500AF53
:100CC0002F4B304A1A602E4B00229A602C4B002288
:100CD000DA602B4B00221A74294B00225A74284BDD
:100CE00000229A74264B19225A61254B01229A61DF
:100CF000234B0622DA61224B09221A62204B192269
:100D00005A621F4B01229A621D4B0D22DA621C4B64
:100D100002221A631A4B4FF4A0625A63184B012245
:100D20009A63174B0022DA63154B00221A64144BA6
:100D300004225A64124B02229A64114B0422DA6490
:100D40000F4B00221A650E4B04225A650C4B0022F1
:100D50009A650B4B0022DA65094B01221A66084B93
:100D600000225A66064B04229A66054802F0BEFC31
:100D70000346002B01D000F0E7F800BF80BD00BFA4
:100D80009C02002400A4004080B58CB000AF07F1A5
:100D90001C0300221A605A609A60DA601A61394BAB
:100DA000D3F8E030374A43F08003C2F8E030354BE7
:100DB000D3F8E03003F08003BB61BB69314BD3F85B
:100DC000E030304A43F00403C2F8E0302D4BD3F852
:100DD000E03003F004037B617B692A4BD3F8E030F9
:100DE000284A43F00103C2F8E030264BD3F8E03044
:100DF00003F001033B613B69224BD3F8E030214A09
:100E000043F01003C2F8E0301E4BD3F8E03003F09B
:100E10001003FB60FB681B4BD3F8E030194A43F02A
:100E20000203C2F8E030174BD3F8E03003F00203BE
:100E3000BB60BB68134BD3F8E030124A43F00803A1
:100E4000C2F8E0300F4BD3F8E03003F008037B60CA
:100E50007B6800224FF400510B4803F0C7FF4FF4AA
:100E60000053FB6101233B6200237B620023BB62D2
:100E700007F11C031946044803F008FE00BF303791
:100E8000BD4680BD004402580010025880B582B0B3
:100E900000AF786006F058FE0CF044FA41F288305A
:100EA00007F0B2FDFAE7000080B584B000AF3B4622
:100EB00000221A605A609A60DA6000F039FE01235D
:100EC0003B7000237B70164B7B600E233B7200232C
:100ED0007B720123BB720323FB7200233B7300234D
:100EE0007B730023BB730023FB733B46184600F063
:100EF00057FE01237B7007233B720023BB72012343
:100F00003B7301237B730123FB733B46184600F0C0
:100F100047FE042000F024FE00BF1037BD4680BD10
:100F20000000043080B582B000AF78607B681B6839
:100F3000044A934201D100F0DBFC00BF0837BD46F4
:100F400080BD00BF0010004080B400AF72B600BF8B
:100F5000FEE7000080B582B000AF0C4BD3F8F43050
:100F60000A4A43F00203C2F8F430084BD3F8F430D5
:100F700003F002037B607B6800220F216FF0010009
:100F800000F0AEFD00BF0837BD4680BD00440258EA
:100F900080B5BCB000AF786007F1DC0300221A60B6
:100FA0005A609A60DA601A6107F11803C0220021C2
:100FB000184617F038FD7B681B685E4A934258D18B
:100FC0004FF400424FF00003C7E906234FF080536F
:100FD000C7F8883007F11803184604F06DFF034680
:100FE000002B01D0FFF7B0FF534B1B680133524A6F
:100FF0001360514B1B68012B0ED1504BD3F8EC30D2
:101000004E4A43F48073C2F8EC304C4BD3F8EC30CA
:1010100003F480737B617B69484BD3F8E030474A27
:1010200043F00803C2F8E030444BD3F8E03003F05B
:1010300008033B613B690323C7F8DC300223C7F890
:10104000E0300123C7F8E4300323C7F8E830092370
:10105000C7F8EC3007F1DC031946394803F016FDF8
:1010600000220521132000F03BFD132000F052FD6B
:101070005CE07B681B68334A934257D14FF40042CF
:101080004FF00003C7E906234FF08053C7F88830BC
:1010900007F11803184604F00FFF0346002B01D098
:1010A000FFF752FF244B1B680133234A1360224B86
:1010B0001B68012B0ED1214BD3F8EC301F4A43F4AF
:1010C0008073C2F8EC301D4BD3F8EC3003F480731E
:1010D000FB60FB68194BD3F8E030184A43F0020379
:1010E000C2F8E030154BD3F8E03003F00203BB60E8
:1010F000BB686023C7F8DC300223C7F8E030012367
:10110000C7F8E4300323C7F8E8300923C7F8EC3008
:1011100007F1DC0319460C4803F0B8FC0022052156
:10112000142000F0DDFC142000F0F4FC00BFF037C8
:10113000BD4680BD00A0004040030024004402588A
:10114000000C025800A400400004025880B590B082
:1011500000AF78607B680F2B27D800227968362093
:1011600000F0BEFC362000F0D5FC294A7B681360F5
:10117000284BD3F8E830274A43F01003C2F8E83090
:10118000244BD3F8E83003F01003FB60FB6807F151
:10119000100207F114031146184604F04BFEBB6A17
:1011A000BB63BB6B002B06D101E001232BE004F0F5
:1011B0002BFEF86304E004F027FE03465B00FB63AC
:1011C000FB6B154AA2FB03239B0C013B7B63134B78
:1011D000134A1A60114B40F2E732DA600F4A7B6B18
:1011E00053600E4B00221A610C4B00229A600B4890
:1011F00006F0D0F90346002B04D1084806F02CFA7B
:10120000034600E0012318464037BD4680BD00BFBD
:101210000C0000240044025883DE1B4344030024D6
:101220000010004080B400AFFEE780B400AFFEE7DE
:1012300080B400AFFEE780B400AFFEE780B400AF3B
:10124000FEE780B400AF00BFBD465DF8047B704789
:1012500080B500AF024802F00BFF00BF80BD00BFA9
:10126000FC01002480B500AF024802F001FF00BF7E
:1012700080BD00BF9C02002480B500AF024806F08C
:1012800063FA00BF80BD00BF4403002480B500AFF7
:10129000024801F08DF800BF80BD00BF1804002493
:1012A00080B400AF01231846BD465DF8047B70474B
:1012B00080B483B000AF78603960054B16221A60A5
:1012C0004FF0FF3318460C37BD465DF8047B70477E
:1012D000EC8B002480B582B000AF78604FF0FF3116
:1012E0007868FFF7E5FFFEE780B586B000AFF860ED
:1012F000B9607A6000237B610AE0AFF300800146A9
:10130000BB685A1CBA60CAB21A707B6901337B6130
:101310007A697B689A42F0DB7B6818461837BD46CD
:1013200080BD80B586B000AFF860B9607A600023F8
:101330007B6109E0BB685A1CBA601B781846AFF3A2
:1013400000807B6901337B617A697B689A42F1DBBB
:101350007B6818461837BD4680BD80B483B000AFA7
:1013600078604FF0FF3318460C37BD465DF8047BBC
:10137000704780B483B000AF786039603B684FF449
:1013800000525A60002318460C37BD465DF8047BB6
:10139000704780B483B000AF7860012318460C37E3
:1013A000BD465DF8047B704780B485B000AFF8603F
:1013B000B9607A60002318461437BD465DF8047B97
:1013C0007047000080B487B000AF7860144A154BB6
:1013D000D31A7B617B693B61134B1B68002B02D1E5
:1013E000114B124A1A60104B1A687B6813443A6911
:1013F0009A4205D20E4B0C221A604FF0FF3309E0DF
:10140000094B1B68FB60084B1A687B681344064A4B
:101410001360FB6818461C37BD465DF8047B7047B7
:10142000000008240004000090030024F08B002436
:10143000EC8B002480B483B000AF3F4BD3F88830EE
:101440003D4A43F47003C2F888303C4B1B6803F0FC
:101450000F03062B07D8394B1B6823F00F03374ABD
:1014600043F007031360364B1B68354A43F0010312
:101470001360334B00221A61314B1A683049314BEB
:1014800013400B602D4B1B6803F00803002B07D0A3
:101490002A4B1B6823F00F03284A43F0070313600D
:1014A000274B00229A61264B0022DA61244B00224E
:1014B0001A62234B244A9A62214B244ADA62204B57
:1014C000234A1A631E4B00225A631D4B204A9A631B
:1014D0001B4B0022DA631A4B1D4A1A64184B002278
:1014E0005A64174B1B68164A23F480231360144B6D
:1014F00000221A66174B1A68174B1340B3F1005FAE
:1015000002D2164B01221A600D4BD3F8DC300C4A84
:1015100043F06043C2F8DC30094BD3F8DC307B6029
:101520007B680F4B43F2D2021A6000BF0C37BD46F6
:101530005DF8047B704700BF00ED00E00020005222
:10154000004402587FEDF6EA000202020000FF01AB
:10155000800201010010005C0000FFFF08810051C3
:1015600000400052DFF834D0FFF764FF0C480D490B
:101570000D4A002302E0D458C4500433C4188C42EE
:10158000F9D30A4A0A4C002301E013600432A24254
:10159000FBD317F003FAFFF701FA704700000824A5
:1015A000000000249C00002424ED01089C0000247D
:1015B000F08B0024FEE780B483B000AF7860396020
:1015C0007B68002B0BD03B68DB68002B07D03B68A7
:1015D0009B68002B03D03B681B69002B02D14FF0A6
:1015E000FF3314E03B681A687B689A603B685A686E
:1015F0007B68DA603B68DA687B685A613B689A68A6
:101600007B681A613B681A697B689A6100231846F7
:101610000C37BD465DF8047B704780B586B000AFDF
:1016200078600023FB600023BB6000237B61002304
:101630003B617B685B68002B7CD17B689B68002BDF
:1016400002D07B689B6898477B6820221A60002341
:101650007B611CE07B685B6907F1080212217869F5
:1016600098470346002B03DA6FF004033B610BE05D
:10167000BB6803F01F037A699A4205D17B687A69D7
:101680001A6000233B6105E07B6901337B617B6964
:101690001F2BDFD97B681B681F2B02D96FF0020359
:1016A0003B613B69002B45D17B681B697A681068F8
:1016B0004FF40042002198470346002B37DB7B683C
:1016C0005B697A68106807F10802002198470346B1
:1016D000002B28DB7B689B6998470346FB601CE076
:1016E0007B689B69984703461A46FB68D31AB3F593
:1016F000FA7F0ED87B685B697A68106807F1080288
:10170000002198470346002B07DA6FF004033B6182
:1017100010E06FF001033B610CE0BB6803F4004391
:10172000002BDDD106E06FF004033B6102E06FF0B7
:1017300003033B613B69002B12D17B689B6998478F
:101740000346FB6000BF7B689B69984703461A46C7
:10175000FB68D31AB3F5FA6FF5D97B6801225A609A
:101760003B6918461837BD4680BD80B584B000AFD0
:1017700078600023FB607B685B697A68106807F11A
:101780000C02012198470346002B02DA6FF0040394
:101790006EE07B685B697A68106807F10C020121D2
:1017A00098470346002B02DA6FF0040360E0FB6801
:1017B00003F00403002B01D1012359E07B685B692E
:1017C0007A68106807F10C02002198470346002B45
:1017D00002DA6FF004034BE0FB6803F48053002B44
:1017E0001BD1FB6803F40053002B06D0FB6803F405
:1017F0008073002B01D002233AE0FB6803F400530E
:10180000002B01D0032333E0FB6803F48073002B2B
:1018100001D004232CE005232AE07B685B697A6809
:10182000106807F10C021F2198470346002B02DACB
:101830006FF004031CE0FB6803F48053002B01D11C
:10184000062315E0FB6803F01C03182B01D10223CB
:101850000EE0FB6803F01C03082B01D1032307E013
:10186000FB6803F01C03142B01D1042300E00523C3
:1018700018461037BD4680BD80B582B000AF03204A
:1018800000F023F904F016F90246154B9B691B0A78
:1018900003F00F031349CB5C03F01F0322FA03F399
:1018A0007B600F4B9B6903F00F030E4AD35C03F080
:1018B0001F037A6822FA03F30B4A13600B4A7B6812
:1018C00013600F20FFF742FC0346002B01D00123D9
:1018D00002E0FFF73FFB002318460837BD4680BDF6
:1018E0000044025844C801080800002404000024F1
:1018F00080B400AF064B1B781A46064B1B68134496
:10190000044A136000BFBD465DF8047B704700BF0A
:10191000100000249403002480B400AF034B1B6824
:101920001846BD465DF8047B704700BF9403002451
:1019300080B400AF034B1B681B0C1846BD465DF816
:10194000047B70470010005C80B483B000AF786007
:10195000064B5B6823F4600204497B6813434B60C9
:1019600000BF0C37BD465DF8047B7047000400588B
:1019700080B485B000AF78607B6803F00703FB603C
:101980000B4BDB68BB60BA684FF6FF031340BB60CC
:10199000FB681A02BB681A43064B1343BB60044A38
:1019A000BB68D36000BF1437BD465DF8047B704749
:1019B00000ED00E00000FA0580B400AF044BDB68E6
:1019C0001B0A03F007031846BD465DF8047B704709
:1019D00000ED00E080B483B000AF0346FB80B7F9B0
:1019E0000630002B0BDBFB8803F01F020749B7F919
:1019F00006305B09012000FA02F241F8232000BF03
:101A00000C37BD465DF8047B704700BF00E100E085
:101A100080B483B000AF03463960FB80B7F906306D
:101A2000002B0ADB3B68DAB20C49B7F90630120129
:101A3000D2B20B4483F800230AE03B68DAB20849CB
:101A4000FB8803F00F03043B1201D2B20B441A7659
:101A500000BF0C37BD465DF8047B704700E100E035
:101A600000ED00E080B489B000AFF860B9607A6042
:101A7000FB6803F00703FB61FB69C3F10703042B59
:101A800028BF0423BB61FB690433062B02D9FB6921
:101A9000033B00E000237B614FF0FF32BB6902FA99
:101AA00003F3DA43BB681A407B699A404FF0FF3179
:101AB0007B6901FA03F3D9437B680B401343184653
:101AC0002437BD465DF8047B704780B582B000AF17
:101AD00078607868FFF74CFF00BF0837BD4680BDCF
:101AE00080B586B000AF0346B9607A60FB81FFF72E
:101AF00063FF78617A68B9687869FFF7B3FF0246D7
:101B0000B7F90E3011461846FFF782FF00BF1837AD
:101B1000BD4680BD80B582B000AF0346FB80B7F9FB
:101B200006301846FFF756FF00BF0837BD4680BD98
:101B300080B400AFBFF35F8F00BF074B5B6A064AFC
:101B400023F480335362054B00225A6000BFBD4628
:101B50005DF8047B704700BF00ED00E090ED00E011
:101B600080B483B000AF78600B4A7B6843F0010318
:101B700053600A4B5B6A094A43F480335362BFF3F4
:101B80004F8F00BFBFF36F8F00BF00BF0C37BD4644
:101B90005DF8047B704700BF90ED00E000ED00E0D1
:101BA00080B483B000AF78607B685A781D4B9A6030
:101BB0007B681B78002B29D01A4A7B685B68D3604E
:101BC0007B681B7B1A077B68DB7A1B061A437B68E2
:101BD0009B7ADB041A437B685B7B9B041A437B681C
:101BE0009B7B5B041A437B68DB7B1B041A437B688B
:101BF0005B7A1B021A437B681B7A5B0013437A688B
:101C000012781146074A0B43136105E0054B002289
:101C1000DA60044B00221A6100BF0C37BD465DF844
:101C2000047B704790ED00E080B584B000AF786031
:101C30007B68002B01D10123CFE07B68D3F884308F
:101C4000002B06D17B682322C3F88420786806F035
:101C500071FB644BD3F8F430624A43F00203C2F8DC
:101C6000F430604BD3F8F43003F00203BB60BB6880
:101C70007B681B7A002B03D10020FFF765FE03E091
:101C80004FF40000FFF760FE574B5B687B681B68F2
:101C900003F580531B687A68126843F0010302F56C
:101CA00080521360FFF738FEF86011E0FFF734FE52
:101CB0000246FB68D31AB3F5FA7F09D97B68042280
:101CC000C3F888207B68E022C3F88420012384E0E5
:101CD0007B681B6803F580531B6803F00103002B2E
:101CE000E4D1786800F028FF04F05EF803463F4A2C
:101CF000A2FB03239A0C7B681B68013AC3F8DC2023
:101D0000786801F021F97B681B6803F58053D3F8EC
:101D1000003123F4E0137A68126843F4002302F5DB
:101D20008052C2F800317B685B6903F00303002B2B
:101D300009D07B680122C3F888207B68E022C3F8C1
:101D40008420012349E07B681B6803F58053D3F8A6
:101D50000821274B13407A68526951007A6812684B
:101D60000B4302F58052C2F80831786801F089F916
:101D7000786801F0CFF97B685B6805331B781A023D
:101D80007B685B6804331B7819467B681B680A43D1
:101D9000C3F800237B685B6803331B781A067B68F3
:101DA0005B6802331B781B041A437B685B68013352
:101DB0001B781B021A437B685B681B7819467B689B
:101DC0001B680A43C3F804237B680022C3F88820F9
:101DD0007B681022C3F88420002318461037BD46C4
:101DE00080BD00BF004402580004005883DE1B433E
:101DF0000180FFFF80B582B000AF78607B68D3F8C8
:101E00008430102B79D17B682322C3F884207B682F
:101E100001229A657B681B68D3F80C177B681A68E7
:101E2000384B0B43C2F80C377B681B68D3F810178C
:101E30007B681A68344B0B43C2F810377B68042266
:101E4000DA66786800F0EBF97B681B681A687B68D3
:101E50001B6842F002021A607B681B681A687B6884
:101E60001B6842F001021A607B681B68D3F8002DE2
:101E70007B681B6842F00102C3F8002D7B681B6879
:101E800003F58053D3F804317A68126843F00103F4
:101E900002F58052C2F804317B681B6803F5805359
:101EA000D3F808317A68126843F0010302F58052D2
:101EB000C2F808317B681B6803F58053D3F86031A2
:101EC0007A68126843F4817302F58052C2F8603177
:101ED0007B681B6803F58053D3F834117B681A685C
:101EE0004DF2C1030B4302F58052C2F834317B68D6
:101EF0002322C3F88420002300E00123184608377A
:101F0000BD4680BD6000020C00C0200C80B485B0CE
:101F100000AF78607B68D3F88430232B65D17B6871
:101F20002322C3F884207B681B6803F58053D3F811
:101F300034117B681A68304B0B4002F58052C2F8AE
:101F400034317B681B6803F58053D3F804317A6819
:101F5000126823F0010302F58052C2F804317B6855
:101F60001B6803F58053D3F808317A68126823F0B0
:101F7000010302F58052C2F808317B681B681A68B9
:101F80007B681B6822F001021A607B681B68D3F82B
:101F9000002D7B681B6842F00102C3F8002D7B68AE
:101FA0001B681A687B681B6822F002021A60002313
:101FB000FB600EE07B68FA68123253F82230BB6097
:101FC000BB68DB6823F08042BB68DA60FB680133E2
:101FD000FB60FB68032BEDD97B6800229A657B6868
:101FE0001022C3F88420002300E001231846143790
:101FF000BD465DF8047B70473E2FFFFF80B582B081
:1020000000AF786039603B68002B09D17B68D3F85A
:10201000883043F001027B68C3F8882001233AE04E
:102020007B68D3F88430232B34D13B685A6B7B68B0
:10203000DA6301223968786801F0CAF80346002B98
:1020400009D07B68D3F8883043F002027B68C3F87C
:10205000882001231FE0BFF34F8F00BF7B689B6A7E
:102060005A1C7B689A627B689B6A032B04D97B6845
:102070009B6A1A1F7B689A627B68996A7B681A68F8
:102080007B68063153F8213002F58052C2F82031C6
:10209000002300E0012318460837BD4680BD80B507
:1020A00088B000AF7860396000237B610023FB7348
:1020B0003B68002B09D17B68D3F8883043F00102DC
:1020C0007B68C3F888200123A5E07B68D3F88430BF
:1020D000232B01D001239EE07B68DB6DFB617B68D5
:1020E000FA69123253F82230BB617B68DB6EC3F1B0
:1020F0000403BB6067E0BB69DB6803F08043002B2F
:1021000007D0BB695A687B689A67BB691A687B68A5
:102110005A67BB69DB6803F00053002B03D17B686F
:10212000DB6F002B3DD0BB69DB6803F00053002B55
:1021300005D07B6800221A667B6800225A667B689D
:102140005B693B61BB69DB6803F08053002B0DD0FA
:10215000BB69DB68C3F30E027B685B6ED31A3B611D
:10216000BB69DA687B681A670123FB737B6803F13C
:102170007C007B6803F18001BB691B691A463B69DF
:102180009BB206F097FA7B681B6E5A1C7B681A6636
:102190007B685A6E3B691A447B685A66BB690022A9
:1021A0001A61FB690133FB61FB69032B02D9FB69EF
:1021B000043BFB617B68FA69123253F82230BB6141
:1021C0007B6901337B61BB69DB68002B06DB7A69C5
:1021D000BB689A4202D2FB7B002B8CD07B68DA6E04
:1021E0007B691A447B68DA667B68DB6E002B02D061
:1021F000786800F014F87B68FA69DA65FB7B012BDC
:1022000008D17B68DA6F3B681A607B680022DA6766
:10221000002300E0012318462037BD4680BD80B56D
:1022200088B000AF78600023FB600123FB747B68FB
:102230009B6EFB617B68FA69123253F822307B6136
:102240007B68DB6EBB613BE07B691B69002B12D1B5
:1022500007F10C03184606F0FDF9FB68002B02D1CC
:102260000023FB7407E0FB681A467B691A61FB6870
:102270001A467B691A60FB7C002B21D0BFF35F8F6D
:1022800000BF7B689B6D002B04D07B694FF04142FF
:10229000DA6003E07B694FF00142DA60FB690133E9
:1022A000FB61FB69032B02D9FB69043BFB617B6883
:1022B000FA69123253F822307B61BB69013BBB6182
:1022C000BB69002B02D0FB7C002BBDD17B68DB6E91
:1022D000BA699A420DD07B681B6803F580531A4691
:1022E0000023C2F828317B68FA699A667B68BA696C
:1022F000DA6600BF2037BD4680BD80B586B000AF2E
:1023000078607B681833BB60BB689B6A7B61BB6885
:10231000DB6A3B610123FB733FE00123BB737B69F5
:10232000013B7B61BA683B6904339B0013445B68E3
:10233000002B06D13B69013303F003033B6100230B
:10234000BB73BB7B002B28D07B68D9683A691346E6
:102350005B001344DB000B44DB68002B1BDBBA681B
:102360003B6904339B0013445B68184606F00AFA85
:10237000BA683B6904339B00134400225A603B69EE
:10238000013303F003033B61BB687A699A62BB685F
:102390003A69DA6201E00023FB737B69002B02D00B
:1023A000FB7B002BB9D1002318461837BD4680BDF2
:1023B00080B584B000AF78607B681B6803F58053FC
:1023C000D3F8603103F04003402B15D17B681B68C4
:1023D00003F58053D3F8343103F04003402B0BD185
:1023E0007B681B6803F580531A4648F24003C2F825
:1023F0006031786805F000FD7B681B6803F5805349
:10240000D3F8603103F00103012B15D17B681B6801
:1024100003F58053D3F8343103F00103012B0BD1C2
:102420007B681B6803F580531A4648F20103C2F823
:102430006031786805F0F0FC7B681B6803F5805319
:10244000D3F8603103F48043B3F5804F53D17B68F8
:102450001B6803F58053D3F8343103F48043B3F59C
:10246000804F48D17B68D3F8883043F008027B68FE
:10247000C3F888207B681B6803F58053D3F860316C
:1024800003F48053B3F5805F1ED17B681B6803F5AE
:102490008053D3F8602141F2021313407A68C2F8E6
:1024A0008C307B681B6803F58053D3F834317A682D
:1024B000126823F4404302F58052C2F834317B683D
:1024C000E022C3F8842013E07B681B6803F5805387
:1024D000D3F8603103F4CD427B68C3F88C207B686D
:1024E0001B6803F580531A464FF4CD43C2F86031A0
:1024F000786805F0A1FC7B681B68D3F8B430FB60FA
:10250000FB6803F48043002B04D1FB6803F4005301
:10251000002B19D07B68D3F8883043F010027B6819
:10252000C3F888207B681B68D3F8B8207B68C3F8A1
:1025300090207B68E022C3F88420786805F07CFC5A
:102540007B680022C3F890207B681B68D3F8B0300A
:1025500003F01003102B0FD17B681B68D3F8C03039
:1025600003F060027B68C3F89420786800F030F8CC
:102570007B680022C3F894207B681B68D3F8B030D6
:1025800003F02003202B0FD17B681B68D3F8C030E9
:1025900003F00F027B68C3F89820786800F022F8F7
:1025A0007B680022C3F89820084B9B6A03F48003E1
:1025B000002B06D0054B4FF480029A62786800F039
:1025C0001BF800BF1037BD4680BD00BF800000581B
:1025D00080B483B000AF786000BF0C37BD465DF8B3
:1025E000047B704780B483B000AF786000BF0C37C5
:1025F000BD465DF8047B704780B483B000AF78605F
:1026000000BF0C37BD465DF8047B704780B586B0CF
:1026100000AFF860B9607A603B60FB681B68D3F874
:10262000003203F00103002B01D001233EE0FB68E0
:102630001B68D3F800327B617B6923F07872BB683A
:102640005B0513437B617B6923F4F8127B681B04F1
:1026500013437B617B6943F00C037B617B6943F02F
:1026600001037B61FB681B687A69C3F80022FFF7EE
:1026700053F9386109E0FFF74FF902463B69D31A75
:10268000B3F57A7F01D9012310E0FB681B68D3F80A
:10269000003203F00103002BEDD1FB681B68D3F877
:1026A00004329BB21A463B681A600023184618375A
:1026B000BD4680BD80B586B000AFF860B9607A6075
:1026C0003B60FB681B68D3F8003203F00103002B6A
:1026D00001D001233CE0FB681B68D3F800327B612A
:1026E0007B6923F07872BB685B0513437B617B6970
:1026F00023F4F8127B681B0413437B617B6923F08E
:102700000C0343F004037B617B6943F001037B61AD
:102710003B689AB2104BC3F804220F4A7B69C2F897
:102720000032FFF7F9F8386109E0FFF7F5F80246E3
:102730003B69D31AB3F57A7F01D9012308E0FB681E
:102740001B68D3F8003203F00103002BEDD1002306
:1027500018461837BD4680BD0080024080B483B063
:1027600000AF786039603B68002B01D10123C3E1E1
:102770007B681B681B6803F00C023B68DA627B68AD
:102780001B681B6803F01003002B14BF01230023F8
:10279000DBB21A463B6883F828207B681B681B68FD
:1027A00003F060023B685A627B681B681B6803F495
:1027B0008073002B0CBF01230023DBB21A463B6859
:1027C00083F820207B681B681B6803F40073002BD0
:1027D00014BF01230023DBB21A463B68DA777B681B
:1027E0001B681B6803F48063002B0CBF01230023CC
:1027F000DBB21A463B689A777B681B681B6803F458
:102800000063002B14BF01230023DBB21A463B6890
:102810005A777B681B681B6803F48053002B14BF36
:1028200001230023DBB21A463B681A777B681B68DA
:102830001B6803F400523B689A617B681B681B6845
:1028400003F480423B685A617B681B681B6803F491
:102850008033002B14BF01230023DBB21A463B68F0
:102860009A747B681B681B6803F40033002B0CBF51
:1028700001230023DBB21A463B685A747B681B684D
:102880001B6803F40023002B0CBF01230023DBB2E1
:102890001A463B681A747B681B681B6803F4801334
:1028A000002B14BF01230023DBB21A463B68DA7306
:1028B0007B681B681B6803F40013002B14BF012303
:1028C0000023DBB21A463B689A737B681B681B685F
:1028D00003F48003002B14BF01230023DBB21A464C
:1028E0003B685A737B681B681B6803F40003002B6A
:1028F00014BF01230023DBB21A463B681A737B68BE
:102900001B681B6803F0E0623B689A607B681B6889
:102910001B6803F00063002B14BF01230023DBB20C
:102920001A463B681A717B681B681B6803F0E0421B
:102930003B681A607B681B685B68C3F30D023B68E9
:102940005A637B681B685B6803F48033002B0CBF01
:1029500001230023DBB21A463B6883F832207B68F0
:102960001B685B6803F40033002B14BF01230023B2
:10297000DBB21A463B6883F831207B681B685B68D2
:1029800003F48023002B14BF01230023DBB21A467B
:102990003B6883F830207B681B685B6803F08073BA
:1029A000002B14BF01230023DBB21A463B6883F8D7
:1029B00038207B681B685B685B0E03F01F023B6876
:1029C000DA637B681B68DB6803F48073002B14BF39
:1029D00001230023DBB21A463B6883F840207B6862
:1029E0001B68DB6803F00F023B685A647B681B6856
:1029F0001B6F03F00203002B14BF01230023DBB283
:102A00001A463B6883F854207B681B681B6F03F0F1
:102A10008003002B0CBF01230023DBB21A463B6866
:102A200083F84C207B681B681B6F03F070023B68C7
:102A30001A657B681B681B6F1B0C9AB23B689A6413
:102A40007B681B68D3F8903003F00103002B14BFA0
:102A500001230023DBB21A463B6883F856207B68CB
:102A60001B68D3F8903003F00203002B14BF01233E
:102A70000023DBB21A463B6883F855207B681B684D
:102A8000D3F8003D03F072023B689A657B681B68CF
:102A9000D3F8303D03F023023B68DA657B681B689E
:102AA000D3F8303D03F00803002B14BF01230023AB
:102AB000DBB21A463B6883F862207B681B68D3F858
:102AC000303D03F01003002B14BF01230023DBB2C1
:102AD0001A463B6883F861207B681B68D3F8303D59
:102AE00003F04003002B0CBF01230023DBB21A4686
:102AF0003B6883F86020002318460C37BD465DF81C
:102B0000047B704780B582B000AF786039603B6865
:102B1000002B01D101230BE07B68D3F88430102B0C
:102B200005D13968786800F06DF8002300E00123D2
:102B300018460837BD4680BD80B584B000AF7860C8
:102B40007B681B68D3F80032FB60FB6823F470637A
:102B5000FB6003F029F9B860BB681E4A934208D9AC
:102B6000BB681D4A934204D8FB6843F40073FB60C2
:102B700027E0BB68184A934208D9BB68174A9342BA
:102B800004D2FB6843F44073FB601AE0BB68134A4D
:102B9000934203D3BB68124A934211D9BB68104ACF
:102BA000934208D9BB680F4A934204D8FB6843F4A8
:102BB0008073FB6005E0FB6843F48063FB6000E02A
:102BC00000BF7B681B68FA68C3F8002200BF10379B
:102BD000BD4680BDFF2C3101BF0E16020087930356
:102BE000FFE0F5057FD1F00880B483B000AF7860D6
:102BF0007B68D3F88C3018460C37BD465DF8047BF3
:102C00007047000080B485B000AF786039603B68E1
:102C10009A683B681B681A433B681B79DB061A43BA
:102C20003B681B7BDB051A433B685B7B9B051A43B8
:102C30003B689B7B5B051A433B68DB7B1B051343AF
:102C40003A68127C002A02D14FF4002200E00022F0
:102C500013433A68527C002A02D14FF4003200E05C
:102C600000221A433B689B7C1B041A433B685B6948
:102C70001A433B689B691A433B681B7F1B031A433B
:102C80003B685B7FDB0213433A68927F002A02D1E4
:102C90004FF4806200E000221A433B68DB7F5B0256
:102CA00013433A6892F82020002A02D14FF4807230
:102CB00000E000221A433B685B6A1A433B6893F8C2
:102CC00028301B011A433B68DB6A1343FB607B68B7
:102CD0001B681A68564B13407A681268F9680B43F0
:102CE00013603B68DB6B5A063B6893F838301B0671
:102CF0001A433B6893F830309B041A433B6893F8BF
:102D000031305B0413433A6892F83220002A02D132
:102D10004FF4803200E000221A433B685B6B1343A0
:102D2000FB607B681B685A68424B13407A681268E4
:102D3000F9680B4353603B6893F840301A023B68D4
:102D40005B6C1343FB607B681B68DA683A4B13408B
:102D50007A681268F9680B43D3603B6893F8543083
:102D60005A003B681B6D13433A6892F84C20002AC6
:102D700001D1802200E000221A433B689B6C1B04B7
:102D80001343FB607B681B681A6F4FF60D7313408B
:102D90007A681268F9680B4313673B6893F85630FA
:102DA0001A463B6893F855305B001343FB607B6821
:102DB0001B68D3F8903023F003017B681B68FA6826
:102DC0000A43C3F890207B681B68D3F8003D23F0CA
:102DD00072013B689A6D7B681B680A43C3F8002D3B
:102DE0003B68DB6D3A6892F86020002A01D14022EE
:102DF00000E000221A433B6893F861301B011A433C
:102E00003B6893F86230DB001343FB607B681B6810
:102E1000D3F8303D23F07B017B681B68FA680A43D6
:102E2000C3F8302D00BF1437BD465DF8047B7047F2
:102E3000838004000080F8C0F0FEFFFF80B485B0FE
:102E400000AF786039607B681B6803F580531A68AF
:102E5000384B13403A6811687A6812680B4302F5E0
:102E6000805213603B681B791A033B689B681A43C6
:102E70003B681B7BDB031343FB607B681B6803F52C
:102E800080535A682C4B13407A681268F9680B43D8
:102E900002F5805253603B685B7B1A043B681B6AF7
:102EA0001343FB607B681B6803F58053D3F8002154
:102EB000224B13407A681268F9680B4302F580527E
:102EC000C2F800313B681A693B681B7D1B011A433D
:102ED0003B685B7F1B031343FB607B681B6803F548
:102EE0008053D3F80421164B13407A681268F968AE
:102EF0000B4302F58052C2F804313B681B7FDA07AE
:102F00003B689B691343FB607B681B6803F5805338
:102F1000D3F808210B4B13407A681268F9680B4309
:102F200002F58052C2F8083100BF1437BD465DF883
:102F3000047B7047FD87FFFFFE2FFFFF00C0FEFFF1
:102F4000EFEFC0FFFFFFC07F80B5A4B000AF786097
:102F5000012387F83B3000233B65002387F8493085
:102F6000002387F84B30012387F83030012387F89E
:102F70005E30012387F83A30002387F8543001236C
:102F800087F88C304FF400537B64002387F864305B
:102F90000023BB66002387F88D30002387F88E302E
:102FA0004FF4C3633B66002387F8383000237B630C
:102FB000012387F83D30002387F83E30002387F84F
:102FC00048300023FB6700237B670023BB65002399
:102FD00087F86C30002387F88230012387F84A3065
:102FE0002023C7F88830012387F84C30002387F866
:102FF0005D304FF04053FB624FF480433B6400234D
:1030000087F839300223C7F88430002387F88030EE
:10301000002387F88130002387F85C30012387F88C
:103020003C3000233B67012387F8783007F12C03FD
:1030300019467868FFF7E6FD01233B7301233B61E6
:103040000023BB60002387F8243000237B75002316
:103050003B754FF400133B6200233B774FF40013A2
:10306000BB61002387F825304FF40673BB6207F17C
:10307000080319467868FFF7E1FE00BF9037BD46A8
:1030800080BD80B485B000AF78600023FB601DE098
:103090007B68D968FA6813465B001344DB000B4475
:1030A000BB60BB6800221A60BB6800225A60BB6824
:1030B00000229A60BB680022DA60B9687B68FA680F
:1030C000063243F82210FB680133FB60FB68032BD8
:1030D000DED97B6800229A627B681B6803F5805307
:1030E0001A460323C2F82C317B68DA687B681B68B8
:1030F00003F58053C3F814217B68DA687B681B688A
:1031000003F58053C3F8202100BF1437BD465DF896
:10311000047B704780B485B000AF78600023FB600B
:1031200023E07B681969FA6813465B001344DB00EF
:103130000B44BB60BB6800221A60BB6800225A6067
:10314000BB6800229A60BB680022DA60BB6800227C
:103150001A61BB6800225A61B9687B68FA6812324A
:1031600043F82210FB680133FB60FB68032BD8D9BE
:103170007B680022DA657B6800221A667B68002281
:103180009A667B680022DA667B6800229A657B6813
:103190001B6803F580531A460323C2F830317B685D
:1031A0001A697B681B6803F58053C3F81C217B6890
:1031B0001B6903F148027B681B6803F58053C3F861
:1031C000282100BF1437BD465DF8047B704700001E
:1031D00080B48DB000AFF860B9607A60FB681833D6
:1031E0007B617B691B69FB627B691B693B61002317
:1031F0007B627B69FA6A53F822303B62BB689B684A
:10320000FB610023BB613B6ADB6803F00043B3F161
:10321000004F07D07A69FB6A04339B0013445B6854
:10322000002B01D0022359E2BB681B6803F00403A2
:10323000002B44D03B6ADA68754B1340BA68526A77
:103240001A433B6ADA603B6ADB6843F480323B6ACC
:10325000DA60FB681B681A6EFB681B6842F4801218
:103260001A66BB681B6803F00803002B27D03B6A73
:103270009B689AB2BB68DB6A1B041A433B6A9A607C
:103280003B6ADB6843F400323B6ADA603B6ADB6826
:1032900023F44022BB681B6B1A433B6ADA60FB686D
:1032A0001B685A6EFB681B6842F480125A66FB6802
:1032B0001B681A6DFB681B6842F080621A65BB6868
:1032C0001B6803F01003002B0ED03B6A9A68514B29
:1032D0001340BA6892691A433B6A9A603B6ADB689A
:1032E00043F080623B6ADA60BB681B6803F004034A
:1032F000002B05D1BB681B6803F01003002B36D0F0
:103300003B6ADB6843F080423B6ADA60BFF35F8F61
:1033100000BF3B6ADB6843F000423B6ADA60FB6A4D
:103320000133FB62FB6A032B02D9FB6A043BFB629D
:103330007B69FA6A53F822303B627B6A01337B6215
:103340003B6ADB6803F00043B3F1004F0FD17B69A8
:103350003A6953F822303B62BFF35F8F00BF3B6A8C
:10336000DB6823F000423B6ADA600223B6E17B6A45
:1033700001337B62FB691B681A463B6A1A603B6A31
:103380009A68244B1340FA6952681A433B6A9A6060
:10339000FB699B68002B12D0FB699B68FB61FB6992
:1033A0001B681A463B6A5A603B6A9A681A4B13407C
:1033B000FA69526812041A433B6A9A6008E03B6A51
:1033C00000225A603B6A9A68134B13403A6A936032
:1033D000BB681B6803F01003002B21D03B6ADB683D
:1033E00023F4F002BB681B6ADB041A433B6ADA6011
:1033F0003B6ADA68094B1340BA68D2691A433B6AE0
:10340000DA603B6ADB6843F480223B6ADA602EE0D4
:103410000000FFFF00C0FFFFFFFF00C00000FCFF37
:103420003B6ADA687B4B1340BA6852681A433B6ABE
:10343000DA60BB681B6803F00103002B08D03B6A0D
:10344000DB6823F44032BB685B691A433B6ADA608D
:10345000BB681B6803F02003002B08D03B6ADB68C5
:1034600023F04062BB681B691A433B6ADA60BB68A1
:103470001B6803F00403002B08D03B6A9B6823F40D
:103480004042BB689B6A1A433B6A9A603B6ADB68AE
:1034900043F000523B6ADA603B6ADB6823F080420B
:1034A0003B6ADA60BFF35F8F00BF3B6ADB6843F0C3
:1034B00000423B6ADA60BB681B6803F00203002B22
:1034C00000F0DA803B6ADB6823F06072BB68DB687F
:1034D0001A433B6ADA60CFE03B6ADB6823F0805234
:1034E0003B6ADA60FB6A0133FB62FB6A032B02D999
:1034F000FB6A043BFB627B69FA6A53F822303B6249
:103500003B6ADB6823F000523B6ADA603B6ADB68A7
:1035100003F00043B3F1004F07D07A69FB6A04332C
:103520009B0013445B68002B29D03B69FB627B69DD
:10353000FA6A53F822303B620023BB6219E0BFF302
:103540005F8F00BF3B6ADB6823F000423B6ADA60B2
:10355000FB6A0133FB62FB6A032B02D9FB6A043B63
:10356000FB627B69FA6A53F822303B62BB6A013323
:10357000BB62BA6A7B6A9A42E1D30223AEE07B6AFD
:1035800001337B62FB699B68FB61FB691B681A4620
:103590003B6A1A603B6A9A681F4B1340FA6952688B
:1035A0001A433B6A9A60FB699B68002B12D0FB6947
:1035B0009B68FB61FB691B681A463B6A5A603B6A61
:1035C0009A68164B1340FA69526812041A433B6A10
:1035D0009A6008E03B6A00225A603B6A9A680F4B87
:1035E00013403A6A9360BB681B6803F01003002B1A
:1035F00018D03B6ADA680A4B1340BA68D2691A439A
:103600003B6ADA603B6ADB6843F480223B6ADA603B
:1036100020E000BF0080FFFF00C0FFFFFFFF00C0F1
:103620000000FCFF3B6ADA682F4B1340BA6852680F
:103630001A433B6ADA60BB681B6803F00103002B86
:1036400008D03B6ADB6823F44032BB685B691A43ED
:103650003B6ADA60BB690133BB61BFF35F8F00BFB8
:103660003B6ADB6843F000423B6ADA603B6ADB6836
:1036700023F080423B6ADA60FB699B68002B7FF491
:103680002BAF7B68002B06D03B6A9B6843F000425F
:103690003B6A9A6005E03B6A9B6823F000423B6A04
:1036A0009A603B6ADB6843F080523B6ADA607B6970
:1036B0005A6A7969FB6A04339B000B445A607B6940
:1036C000FA6A1A6172B600BF7B699A6ABB691344D1
:1036D0005A1C7B699A6262B600BF002318463437D1
:1036E000BD465DF8047B70470080FFFF80B598B051
:1036F00000AF7860844A07F10C0311464C2218464B
:1037000015F083F97B68002B01D10123C6E17B68AA
:103710001B687E4A934206D17B681B6803F5807361
:103720001A467B685A607B6893F89830DBB2002BAE
:1037300006D17B68002283F899207868FDF728FC81
:103740007B681B689A697B681B6822F010029A618B
:10375000FEF7E2F8F86514E0FEF7DEF80246FB6DCE
:10376000D31A0A2B0DD97B68D3F89C3043F00102A1
:103770007B68C3F89C207B68032283F89820012390
:103780008CE17B681B689B6903F00803082BE3D07E
:103790007B681B689A697B681B6842F001029A612A
:1037A000FEF7BAF8F86514E0FEF7B6F80246FB6DCE
:1037B000D31A0A2B0DD97B68D3F89C3043F0010251
:1037C0007B68C3F89C207B68032283F89820012340
:1037D00064E17B681B689B6903F00103002BE3D065
:1037E0007B681B689A697B681B6842F002029A61D9
:1037F0007B681B7C012B08D17B681B689A697B68FE
:103800001B6822F040029A6107E07B681B689A6996
:103810007B681B6842F040029A617B685B7C012BED
:1038200008D17B681B689A697B681B6842F48042F8
:103830009A6107E07B681B689A697B681B6822F4C1
:1038400080429A617B689B7C012B08D17B681B6856
:103850009A697B681B6822F480529A6107E07B6852
:103860001B689A697B681B6842F480529A617B6886
:103870001B689B6923F440717B689A687B681B68AE
:103880000A439A617B681B689A697B681B6822F00F
:10389000A4029A617B681B681A697B681B6822F026
:1038A00010021A617B68DB68012B08D17B681B68FA
:1038B0009A697B681B6842F004029A6130E07B6879
:1038C000DB68002B2CD07B68DB68022B20D07B6868
:1038D0001B689A697B681B6842F080029A617B686A
:1038E0001B681A697B681B6842F010021A617B68CA
:1038F000DB68032B14D17B681B689A697B681B68A3
:1039000042F020029A610BE0449A010800A00040B6
:103910007B681B689A697B681B6842F020029A6189
:103920007B689B69013B5A067B68DB69013B1B0294
:103930001A437B681B6A013B42EA03017B685B69AF
:10394000013B1A047B681B680A43DA617B689B6849
:10395000B3F5407F15D17B689B6A5A1E7B68DB6A92
:10396000013B1B021A437B681B6B013B1B0142EAB4
:1039700003017B685B6A013B1A047B681B680A438E
:10398000DA607B681B6E002B0AD07B681B68D3F85B
:10399000C0107B685A6E7B681B680A43C3F8C0205E
:1039A0007B68DA6D7B681B6E1344002B11D07B683B
:1039B0001B68D3F8C83023F007017B689B6E9B001F
:1039C00060333B4453F8542C7B681B680A43C3F8AC
:1039D000C8207B681B6C002B11D07B681B68D3F858
:1039E000BC3023F007017B685B6C9B0060333B4479
:1039F00053F8542C7B681B680A43C3F8BC207B68CF
:103A00009B6C002B12D07B681B68D3F8BC3023F072
:103A100070017B68DB6C9B0060333B4453F8543C83
:103A20001A017B681B680A43C3F8BC207B681B6DC6
:103A3000002B12D07B681B68D3F8BC3023F4E06104
:103A40007B685B6D9B0060333B4453F8543C1A0227
:103A50007B681B680A43C3F8BC207B681B68114A5B
:103A6000934207D17B685B689A687B685B6822F049
:103A700003029A607B680022C3F894207B680022CE
:103A8000C3F89C207B68012283F89820786800F0B6
:103A9000F9FD034687F85B3097F85B3018466037CE
:103AA000BD4680BD00A0004080B487B000AF786004
:103AB00039607B6893F89830FB73FB7B012B02D055
:103AC000FB7B022B57D13B681B68002B2BD13B683B
:103AD000DB68072B0DD13B681B691A043B68DB6967
:103AE0001B021A433B689B69134343F060537B619D
:103AF0000EE03B689B689A073B68DB68DB061A436D
:103B00003B681B691B041A433B685B6913437B6179
:103B10007B68DA6E3B685B689B001344BB60BB68E4
:103B20007A691A6025E03B68DB685A073B681B69C5
:103B300013437B613B68DB68072B03D13B689B69C0
:103B40003B6106E03B689B689A073B685B691343EF
:103B50003B617B681A6F3B685B68DB001344BB60AA
:103B6000BB687A691A60BB680433BB60BB683A699A
:103B70001A60002308E07B68D3F89C3043F002020F
:103B80007B68C3F89C20012318461C37BD465DF8AE
:103B9000047B704780B483B000AF78607B6893F893
:103BA0009830DBB2012B11D17B68022283F8982078
:103BB0007B681B689A697B681B6822F001029A6126
:103BC0007B680022C3F89C20002308E07B68D3F8C0
:103BD0009C3043F004027B68C3F89C200123184604
:103BE0000C37BD465DF8047B704780B586B000AFEA
:103BF000F860B9607A60FB6893F89830DBB2022B0A
:103C000041D1FB681B68D3F8C03003F07C53002B14
:103C100009D1FB68D3F89C3043F02002FB68C3F85D
:103C20009C20012338E0FB681B68D3F8C43003F400
:103C30000013002B09D0FB68D3F89C3043F40072CA
:103C4000FB68C3F89C20012326E0FB681B68D3F8BF
:103C5000C4301B0C03F01F037B617B697A68B96871
:103C6000F86800F095FEFB681B6801217A6901FA8B
:103C700002F2C3F8D02001227B699A40FB68C3F8A6
:103C80009420002308E0FB68D3F89C3043F008023E
:103C9000FB68C3F89C20012318461837BD4680BD39
:103CA00080B48BB000AFF860B9607A603B600023ED
:103CB000FB61FB6893F89830FB76FB7E022B40F0AB
:103CC0004B81BB68402B4DD1FB681B68D3F8A030FB
:103CD00003F4FE03002B09D1FB68D3F89C3043F0BA
:103CE0002002FB68C3F89C2001233EE1FB681B68AF
:103CF000D3F8A43003F07F03002B09D1FB68D3F87D
:103D00009C3043F48072FB68C3F89C2001232CE1B3
:103D1000FB681B68D3F8A4301B0E03F00103012BD2
:103D20000BD1FB681B68D3F8A030DB0F03F0010355
:103D3000B3F1004F01D10123FB61FB681B68D3F88D
:103D4000A4301B0A03F03F03FA691344FB61FB68CC
:103D50005A6FFB685B6CF96901FB03F39B0013442A
:103D60007B6269E0BB68412B4DD1FB681B68D3F8CF
:103D7000B03003F4FE03002B09D1FB68D3F89C306C
:103D800043F02002FB68C3F89C200123EDE0FB68B0
:103D90001B68D3F8B43003F07F03002B09D1FB6814
:103DA000D3F89C3043F48072FB68C3F89C20012355
:103DB000DBE0FB681B68D3F8B4301B0E03F0010393
:103DC000012B0BD1FB681B68D3F8B030DB0F03F07D
:103DD0000103B3F1004F01D10123FB61FB681B68B4
:103DE000D3F8B4301B0A03F03F03FA691344FB61B4
:103DF000FB689A6FFB68DB6CF96901FB03F39B00BE
:103E000013447B6218E0FB681B6DBA689A4209D3C1
:103E1000FB68D3F89C3043F02002FB68C3F89C2079
:103E20000123A2E0FB68DA6FFB685B6DB96801FBF8
:103E300003F39B0013447B627B6A1B6803F08042A0
:103E40007B685A607B685B68002B07D17B6A1B68C4
:103E50009B0CC3F30A027B681A6005E07B6A1B684F
:103E600023F060427B681A607B6A1B6803F0005293
:103E70007B689A607B6A1B6803F000427B681A616A
:103E80007B6A04337B627B6A1B689AB27B68DA6167
:103E90007B6A1B6803F470227B68DA607B6A1B68AC
:103EA00003F480127B685A617B6A1B6803F400127A
:103EB0007B689A617B6A1B681B0E03F07F027B683C
:103EC0001A627B6A1B68DA0F7B685A627B6A04336A
:103ED0007B627B6A7B6100233B620AE07A693B6A12
:103EE0001A4439683B6A0B4412781A703B6A0133F2
:103EF0003B627B68DB681B0C1F4AD35C1A463B6A3B
:103F00009342EBD3BB68402B05D1FB681B68FA6971
:103F1000C3F8A8201EE0BB68412B05D1FB681B68D5
:103F2000FA69C3F8B82015E0BB681F2B08D8FB68F6
:103F30001B680121BA6801FA02F2C3F8982009E06F
:103F4000BB6803F01F02FB681B68012101FA02F243
:103F5000C3F89C20002308E0FB68D3F89C3043F0B2
:103F60000802FB68C3F89C20012318462C37BD4685
:103F70005DF8047B704700BF54C8010880B487B067
:103F800000AFF860B9607A60FB6893F89830FB7511
:103F9000FB7D012B02D0FB7D022B55D1FB681B68FA
:103FA0009A6DBB681340002B08D1FB681B68DA6D63
:103FB000FB681B6842F00102DA6514E0FB681B68CD
:103FC0009A6DBB681340BA689A4208D1FB681B68B7
:103FD000DA6DFB681B6842F00202DA6503E0FB68F9
:103FE0001B680322DA65BB6803F40073002B09D059
:103FF000FB681B68D3F8E010FB681B687A680A430B
:10400000C3F8E020BB6803F48063002B09D0FB6891
:104010001B68D3F8E410FB681B687A680A43C3F88E
:10402000E420FB681B68596DBA680F4B1340FA68AF
:1040300012680B4353650D4B5A69BB689B0F0B49C4
:1040400013434B61002308E0FB68D3F89C3043F036
:104050000202FB68C3F89C20012318461C37BD46AA
:104060005DF8047B704700BFFFFFCF3F00A8004012
:1040700080B596B000AF78609A4B1B699B077B6553
:10408000984B5B699B077A6D13407B657B681B6867
:104090001B6D03F470433B657B681B685B6D3A6D79
:1040A00013403B657B681B681B6D03F00F03FB64CB
:1040B0007B681B685B6DFA6C1340FB647B681B6854
:1040C0001B6D03F0F003BB647B681B685B6DBA6C0F
:1040D0001340BB647B681B681B6D03F071537B64EA
:1040E0007B681B685B6D7A6C13407B647B681B6824
:1040F0001B6D03F060733B647B681B685B6D3A6CFF
:1041000013403B647B681B685B6DFB637B681B68CB
:104110001B6DBB63FB6B1B0A03F00103002B10D06C
:10412000BB6B1B0A03F00103002B0AD07B681B68E2
:104130004FF480721A656B4B00221A61786800F0A8
:1041400054FAFB6B9B0A03F00103002B1DD0BB6BE1
:104150009B0A03F00103002B17D07B681B68D3F880
:10416000DC307B637B681B68D3F8E4307A6B1340E8
:104170007B637B681B684FF480621A65594B002291
:104180001A61796B786800F007FA7B6D002B0DD00F
:104190007B681A68796D544B0B401365514A7B6DEF
:1041A0009B0F1361796D786800F0C0F93B6D002BAF
:1041B0000DD07B681A68396D4B4B0B401365494A2B
:1041C0003B6D9B0F1361396D786800F0BAF9FB6C99
:1041D000002B0DD07B681A68F96C434B0B401365BC
:1041E000404AFB6C9B0F1361F96C7868FCF7E0F8B0
:1041F000BB6C002B0DD07B681A68B96C3A4B0B4036
:104200001365384ABB6C9B0F1361B96C786800F07A
:10421000A3F9FB6BDB0A03F00103002B10D0BB6B8F
:10422000DB0A03F00103002B0AD07B681B684FF404
:1042300000621A652B4B00221A61786800F097F92A
:10424000FB6B5B0A03F00103002B1DD0BB6B5B0A09
:1042500003F00103002B17D07B681B68D3F8D8301C
:104260003B637B681B68D3F8E0303A6B13403B63D9
:104270007B681B684FF400721A651A4B00221A61A2
:10428000396B786800F07DF9FB6BDB0C03F0010300
:10429000002B10D0BB6BDB0C03F00103002B0AD00A
:1042A0007B681B684FF400221A650E4B00221A61CE
:1042B000786800F07CF9FB6B1B0C03F00103002B0A
:1042C00016D0BB6B1B0C03F00103002B10D07B68D6
:1042D0001B684FF480321A65024B00221A6178681D
:1042E00004E000BF00A80040FFFFCF3F00F069F9E5
:1042F000FB6B9B0C03F00103002B10D0BB6B9B0CE2
:1043000003F00103002B0AD07B681B684FF4802266
:104310001A65834B00221A61786800F05CF9FB6B28
:104320005B0C03F00103002B15D0BB6B5B0C03F09F
:104330000103002B0FD07B681B684FF400321A6515
:10434000774B00221A617B68D3F89C3043F08002DF
:104350007B68C3F89C203B6C002B0DD07B681A68EF
:10436000396C704B0B4013656D4A3B6C9B0F1361AE
:10437000396C786800F04DF97B6C002B11D07B68AC
:104380001A68796C674B0B401365654A7B6C9B0F11
:1043900013617B68D3F89C207B6C1A437B68C3F85D
:1043A0009C207B681B68604A934240F0AC807B682D
:1043B0005B689B6803F00303002B00F0A4807B681C
:1043C0005B681B6A03F00F03FB627B685B685B6AD8
:1043D000FA6A1340FB627B685B681B6A03F0300378
:1043E000BB627B685B685B6ABA6A1340BB627B68CE
:1043F0005B681B6A03F4C0737B627B685B685B6A03
:104400007A6A13407B627B685B681B6A03F4FC4337
:104410003B627B685B685B6A3A6A13403B627B681D
:104420005B681B6A03F4F023FB617B685B685B6A73
:10443000FA691340FB617B685B685B6ABB617B6800
:104440005B681B6A7B61FB6A002B07D07B685B683B
:10445000FA6A1A62F96A786800F0E6F8BB6A002B1B
:1044600007D07B685B68BA6A1A62B96A786800F03C
:10447000E6F8BB699B0903F00103002B1AD07B69A6
:104480009B0903F00103002B14D07B685B68DB6B96
:104490001B0C9BB23B617B685B68DB6B03F03F03EB
:1044A000FB607B685B6840221A62FA683969786849
:1044B00000F0D0F87B6A002B07D07B685B687A6AD3
:1044C0001A62796A786800F0D1F83B6A002B0BD049
:1044D0007B685B683A6A1A627B68D3F89C203B6A07
:1044E0001A437B68C3F89C20FB69002B0BD07B68C8
:1044F0005B68FA691A627B68D3F89C20FB691A43EF
:104500007B68C3F89C207B68D3F89C30002B02D0DA
:10451000786800F074F800BF5837BD4680BD00BF12
:1045200000A80040FFFFCF3F00A0004080B483B050
:1045300000AF7860396000BF0C37BD465DF8047B82
:10454000704780B483B000AF7860396000BF0C372B
:10455000BD465DF8047B704780B483B000AF7860DF
:10456000396000BF0C37BD465DF8047B704780B4EE
:1045700083B000AF786000BF0C37BD465DF8047BA8
:10458000704780B483B000AF7860396000BF0C37EB
:10459000BD465DF8047B704780B483B000AF78609F
:1045A000396000BF0C37BD465DF8047B704780B4AE
:1045B00083B000AF786000BF0C37BD465DF8047B68
:1045C000704780B483B000AF786000BF0C37BD4641
:1045D0005DF8047B704780B483B000AF786000BFA3
:1045E0000C37BD465DF8047B704780B483B000AFE4
:1045F000786000BF0C37BD465DF8047B704780B41F
:1046000083B000AF786000BF0C37BD465DF8047B17
:10461000704780B483B000AF7860396000BF0C375A
:10462000BD465DF8047B704780B483B000AF78600E
:10463000396000BF0C37BD465DF8047B704780B41D
:1046400083B000AF7860396000BF0C37BD465DF8BD
:10465000047B704780B485B000AFF860B9607A60C1
:1046600000BF1437BD465DF8047B704780B483B04B
:1046700000AF7860396000BF0C37BD465DF8047B41
:104680007047000080B485B000AF78607B685B6BDA
:10469000BB607B681B68D3F88420A74B1340BA68C3
:1046A00091007A6812680B43C2F884307B681B68FB
:1046B000D3F8843023F47F017B689B6B1A047B68FA
:1046C0001B680A43C3F884207B689B6BBA68134459
:1046D000BB607B681B68D3F88820974B1340BA688F
:1046E00091007A6812680B43C2F888307B681B68B7
:1046F000D3F8883023F4FE017B68DB6B1A047B68F7
:104700001B680A43C3F888207B68DB6B5B00BA68D0
:104710001344BB607B681B68D3F8A020864B134012
:10472000BA6891007A6812680B43C2F8A0307B68BF
:104730001B68D3F8A03023F4FE017B681B6C1A04BD
:104740007B681B680A43C3F8A0207B681B6C7A68EF
:10475000526C02FB03F3BA681344BB607B681B68AE
:10476000D3F8B020744B1340BA6891007A6812688D
:104770000B43C2F8B0307B681B68D3F8B03023F429
:10478000FE017B689B6C1A047B681B680A43C3F8B4
:10479000B0207B689B6C7A68D26C02FB03F3BA682A
:1047A0001344BB607B681B68D3F8AC20624B13409A
:1047B000BA6891007A6812680B43C2F8AC307B6823
:1047C0001B6D7A68526D02FB03F3BA681344BB6039
:1047D0007B681B68D3F8F020574B1340BA689100F0
:1047E0007A6812680B43C2F8F0307B681B68D3F814
:1047F000F03023F47C117B689B6D1A047B681B6886
:104800000A43C3F8F0207B689B6D5B00BA681344D1
:10481000BB607B681B68D3F8C020474B1340BA6865
:1048200091007A6812680B43C2F8C0307B681B683D
:10483000D3F8C03023F47C117B68DB6D1A047B68ED
:104840001B680A43C3F8C0207B681B68D3F8C030DC
:1048500023F07C517B681B6E1A067B681B680A4339
:10486000C3F8C0207B685A6B344B13449A007B68B2
:10487000DA667B68DA6E7B689B6B9B001A447B6808
:104880001A677B681A6F7B68DB6BDB001A447B68F6
:104890005A677B685A6F7B681B6C7968496C01FBAF
:1048A00003F39B001A447B689A677B689A6F7B6866
:1048B0009B6C7968C96C01FB03F39B001A447B680D
:1048C000DA677B68DA6F7B681B6D7968496D01FB7D
:1048D00003F39B001A447B68C3F880207B68D3F8FD
:1048E00080207B689B6DDB001A447B68C3F88420C2
:1048F0007B68D3F884207B68DB6D7968896E01FB67
:1049000003F39B001A447B68C3F888207B68D3F8C4
:1049100088207B681B6E7968896E01FB03F39B001E
:104920001A447B68C3F890207B68D3F89030044A1F
:10493000934215D906E000BF0300FFFF002B0010D3
:10494000FCD300407B68D3F89C3043F020027B68A6
:10495000C3F89C207B68032283F89820012310E091
:104960007B68DB6EFB6005E0FB6800221A60FB6879
:104970000433FB607B68D3F89030FA689A42F3D333
:10498000002318461437BD465DF8047B704700BF0E
:1049900080B489B000AFF860B9607A603B60BB68F2
:1049A0005B68002B0AD1BB681A69BB689B681A4315
:1049B000BB681B689B041343FB610AE0BB681A6970
:1049C000BB689B681A43BB681B68134343F0804372
:1049D000FB61BB681B6A1A06BB68DB691A43BB68CC
:1049E0009B691A43BB685B691A43BB68DB68134366
:1049F0003B61FB68D3F88420FB689B6E396801FB40
:104A000003F39B001344BB61BB69FA691A60BB697D
:104A10000433BB61BB693A691A60BB690433BB618B
:104A200000237B6120E07B6903337A6813441B78A1
:104A30001A067B69023379680B441B781B041A43FE
:104A40007B69013379680B441B781B021343796837
:104A50007A690A4412781A43BB691A60BB69043345
:104A6000BB617B6904337B61BB68DB681B0C064A56
:104A7000D35C1A467B699342D5D300BF00BF24376D
:104A8000BD465DF8047B704754C8010880B489B006
:104A900000AF786039600023FB61894B7B6194E152
:104AA0003B681A680121FB6901FA03F313403B617B
:104AB0003B69002B00F086813B685B6803F00303D1
:104AC000012B05D03B685B6803F00303022B30D158
:104AD0007B689B68BB61FB695B00032202FA03F3FE
:104AE000DB43BA691340BB613B68DA68FB695B0072
:104AF00002FA03F3BA691343BB617B68BA699A602F
:104B00007B685B68BB610122FB6902FA03F3DB434C
:104B1000BA691340BB613B685B681B0903F0010283
:104B2000FB6902FA03F3BA691343BB617B68BA6994
:104B30005A603B685B6803F00303032B17D07B6864
:104B4000DB68BB61FB695B00032202FA03F3DB4312
:104B5000BA691340BB613B689A68FB695B0002FA63
:104B600003F3BA691343BB617B68BA69DA603B68D7
:104B70005B6803F00303022B23D1FB69DA087B682F
:104B8000083253F82230BB61FB6903F007039B0036
:104B90000F2202FA03F3DB43BA691340BB613B689F
:104BA0001A69FB6903F007039B0002FA03F3BA6971
:104BB0001343BB61FB69DA087B680832B96943F8C3
:104BC00022107B681B68BB61FB695B00032202FA51
:104BD00003F3DB43BA691340BB613B685B6803F0D6
:104BE0000302FB695B0002FA03F3BA691343BB617A
:104BF0007B68BA691A603B685B6803F44033002B3A
:104C000000F0E0802F4BD3F8F4302E4A43F002033B
:104C1000C2F8F4302B4BD3F8F43003F00203FB60FE
:104C2000FB68294AFB699B08023352F82330BB61B9
:104C3000FB6903F003039B000F2202FA03F3DB433B
:104C4000BA691340BB617B68204A934252D07B68AB
:104C50001F4A934231D07B681E4A93422BD07B6817
:104C60001D4A934225D07B681C4A93421FD07B6823
:104C70001B4A934219D07B681A4A934213D07B682F
:104C8000194A93420DD07B68184A934207D07B683B
:104C9000174A934201D109232DE00A232BE0082370
:104CA00029E0072327E0062325E0052323E004234A
:104CB00021E003231FE002231DE001231BE000BFCE
:104CC00080000058004402580004005800000258B8
:104CD0000004025800080258000C02580010025844
:104CE0000014025800180258001C025800200258F4
:104CF000002402580023FA6902F003029200934054
:104D0000BA691343BB613849FB699B080233BA692E
:104D100041F823204FF0B0431B68BB613B69DB4384
:104D2000BA691340BB613B685B6803F48013002BD6
:104D300003D0BA693B691343BB614FF0B042BB6912
:104D400013604FF0B0435B68BB613B69DB43BA69FA
:104D50001340BB613B685B6803F40013002B03D076
:104D6000BA693B691343BB614FF0B042BB69536002
:104D70007B695B68BB613B69DB43BA691340BB611C
:104D80003B685B6803F40033002B03D0BA693B69CE
:104D90001343BB617B69BA695A607B691B68BB615D
:104DA0003B69DB43BA691340BB613B685B6803F452
:104DB0008033002B03D0BA693B691343BB617B6925
:104DC000BA691A60FB690133FB613B681A68FB69C9
:104DD00022FA03F3002B7FF463AE00BF00BF243739
:104DE000BD465DF8047B70470004005880B483B072
:104DF00000AF78600B467B8013467B707B78002B7E
:104E000003D07A887B689A6103E07B881A047B6808
:104E10009A6100BF0C37BD465DF8047B7047000007
:104E200080B584B000AF7860194BDB6803F00403F1
:104E3000042B0AD0164BDB6803F007037A689A420A
:104E400001D001231FE000231DE0114BDB6823F09C
:104E500007020F497B681343CB60FCF75DFDF860E8
:104E600009E0FCF759FD0246FB68D31AB3F57A7FD7
:104E700001D9012307E0064B5B6803F40053B3F547
:104E8000005FEED1002318461037BD4680BD00BF3D
:104E90000048025880B58CB000AF78607B68002B6A
:104EA00002D1012300F048BC7B681B6803F00103BA
:104EB000002B00F08880994B1B6903F03803FB62DC
:104EC000964B9B6ABB62FB6A102B07D0FB6A182BC0
:104ED00011D1BB6A03F00303022B0CD18F4B1B686B
:104EE00003F40033002B6DD07B685B68002B69D125
:104EF000012300F021BC7B685B68B3F5803F06D1DD
:104F0000864B1B68854A43F4803313602EE07B6830
:104F10005B68002B0CD1814B1B68804A23F48033E3
:104F200013607E4B1B687D4A23F4802313601DE0D1
:104F30007B685B68B3F5A02F0CD1784B1B68774A70
:104F400043F480231360754B1B68744A43F4803329
:104F500013600BE0714B1B68704A23F480331360BD
:104F60006E4B1B686D4A23F4802313607B685B687B
:104F7000002B13D0FCF7D0FC786208E0FCF7CCFCE7
:104F800002467B6AD31A642B01D90323D4E3634B13
:104F90001B6803F40033002BF0D014E0FCF7BCFCDA
:104FA000786208E0FCF7B8FC02467B6AD31A642BEF
:104FB00001D90323C0E3594B1B6803F40033002BD2
:104FC000F0D100E000BF7B681B6803F00203002BF8
:104FD00000F0CA80514B1B6903F038033B624F4B12
:104FE0009B6AFB613B6A002B07D03B6A182B56D1AA
:104FF000FB6903F00303002B51D1484B1B6803F0FE
:105000000403002B05D07B68DB68002B01D1012352
:1050100092E3424B1B6823F019027B68DB683F492F
:1050200013430B60FCF778FC786208E0FCF774FC33
:1050300002467B6AD31A022B01D903237CE3374B48
:105040001B6803F00403002BF0D0FCF771FC03464F
:1050500041F20302934217D87B681B69402B08D1A9
:105060002E4B5B6823F47C332C4A43F400335360AB
:105070007AE02A4B5B6823F47C327B681B691B0354
:10508000264913434B606FE0244B5B6823F0FE42DC
:105090007B681B691B06214913434B6064E07B68F6
:1050A000DB68002B47D01D4B1B6823F019027B687F
:1050B000DB681A4913430B60FCF72EFC786208E0AA
:1050C000FCF72AFC02467B6AD31A022B01D9032380
:1050D00032E3124B1B6803F00403002BF0D0FCF703
:1050E00027FC034641F20302934219D87B681B69EF
:1050F000402B08D1094B5B6823F47C33074A43F407
:105100000033536030E0054B5B6823F47C327B68EE
:105110001B691B03014913434B6025E000440258FF
:105120009A4B5B6823F0FE427B681B691B0697491C
:1051300013434B6018E0954B1B68944A23F001031E
:105140001360FCF7E9FB786208E0FCF7E5FB024638
:105150007B6AD31A022B01D90323EDE28B4B1B6828
:1051600003F00403002BF0D17B681B6803F01003ED
:10517000002B00F0A980854B1B6903F03803BB614D
:10518000824B9B6A7B61BB69082B07D0BB69182BDC
:105190003AD17B6903F00303012B35D17B4B1B68AC
:1051A00003F48073002B05D07B68DB69802B01D072
:1051B0000123C1E2FCF7BCFB034641F20302934228
:1051C00017D87B681B6A202B08D1704B5B6823F0D3
:1051D000F8436E4A43F08043536075E06B4B5B6865
:1051E00023F0F8427B681B6A9B06684913434B60B7
:1051F0006AE0664BDB6823F07C527B681B6A1B0607
:1052000062491343CB605FE07B68DB69002B42D0CF
:105210005E4B1B685D4A43F080031360FCF77CFB28
:10522000786208E0FCF778FB02467B6AD31A022B0F
:1052300001D9032380E2554B1B6803F48073002BD4
:10524000F0D0FCF775FB034641F20302934217D8F6
:105250007B681B6A202B08D14C4B5B6823F0F8431A
:105260004A4A43F0804353602EE0484B5B6823F08A
:10527000F8427B681B6A9B06444913434B6023E05A
:10528000424BDB6823F07C527B681B6A1B063F495C
:105290001343CB6018E03D4B1B683C4A23F080036E
:1052A0001360FCF739FB786208E0FCF735FB024637
:1052B0007B6AD31A022B01D903233DE2334B1B68CF
:1052C00003F48073002BF0D17B681B6803F00803A4
:1052D000002B36D07B685B69002B19D02B4B5B6FA2
:1052E0002A4A43F001035367FCF716FB786208E093
:1052F000FCF712FB02467B6AD31A022B01D9032367
:105300001AE2224B5B6F03F00203002BF0D018E08F
:105310001E4B5B6F1D4A23F001035367FCF7FCFA39
:10532000786208E0FCF7F8FA02467B6AD31A022B8F
:1053300001D9032300E2154B5B6F03F00203002B3E
:10534000F0D17B681B6803F02003002B39D07B6809
:105350009B69002B1CD00D4B1B680C4A43F48053F7
:105360001360FCF7D9FA786208E0FCF7D5FA024638
:105370007B6AD31A022B01D90323DDE1034B1B689F
:1053800003F40053002BF0D01BE000BF0044025890
:105390009B4B1B689A4A23F480531360FCF7BCFABA
:1053A000786208E0FCF7B8FA02467B6AD31A022B4F
:1053B00001D90323C0E1924B1B6803F40053002B77
:1053C000F0D17B681B6803F00403002B00F08180A0
:1053D0008C4B1B688B4A43F480731360FCF79CFA78
:1053E000786208E0FCF798FA02467B6AD31A642BCD
:1053F00001D90323A0E1834B1B6803F48073002BC6
:10540000F0D07B689B68012B06D17D4B1B6F7C4ADB
:1054100043F0010313672DE07B689B68002B0CD1E0
:10542000774B1B6F764A23F001031367744B1B6F96
:10543000734A23F0040313671CE07B689B68052B09
:105440000CD16F4B1B6F6E4A43F0040313676C4B18
:105450001B6F6B4A43F0010313670BE0684B1B6F34
:10546000674A23F001031367654B1B6F644A23F0FF
:10547000040313677B689B68002B15D0FCF74CFA7C
:1054800078620AE0FCF748FA02467B6AD31A41F2D6
:105490008832934201D903234EE1594B1B6F03F02D
:1054A0000203002BEED014E0FCF736FA78620AE033
:1054B000FCF732FA02467B6AD31A41F288329342F1
:1054C00001D9032338E14E4B1B6F03F00203002B7D
:1054D000EED17B685B6A002B00F02D81484B1B6985
:1054E00003F03803182B00F0BD807B685B6A022B49
:1054F00040F09E80424B1B68414A23F0807313604A
:10550000FCF70AFA786208E0FCF706FA02467B6AC2
:10551000D31A022B01D903230EE1394B1B6803F088
:105520000073002BF0D1364B9A6A374B13407A68E0
:10553000916A7A68D26A12010A43314913438B6235
:105540007B681B6B013BC3F308027B685B6B013B11
:105550005B029BB21A437B689B6B013B1B0403F409
:10556000FE031A437B68DB6B013B1B0603F0FE4323
:10557000234913430B63224BDB6A214A23F00103C7
:10558000D3621F4B5A6B214B13407A68926CD20046
:105590001B4913434B631A4BDB6A23F00C027B68F5
:1055A0001B6C17491343CB62154BDB6A23F00202D5
:1055B0007B685B6C12491343CB62114BDB6A104A68
:1055C00043F48033D3620E4BDB6A0D4A43F400335D
:1055D000D3620B4BDB6A0A4A43F48023D362084B45
:1055E000DB6A074A43F00103D362054B1B68044A98
:1055F00043F080731360FCF78FF9786211E000BF0D
:1056000000440258004802580CFCFFFF0700FFFF4F
:10561000FCF782F902467B6AD31A022B01D90323D5
:105620008AE0474B1B6803F00073002BF0D082E048
:10563000434B1B68424A23F080731360FCF76CF9FC
:10564000786208E0FCF768F902467B6AD31A022BFD
:1056500001D9032370E03A4B1B6803F00073002B61
:10566000F0D168E0364B9B6A3B61354B1B6BFB60AE
:105670007B685B6A012B31D03B6903F003027B68D6
:105680009B6A9A422AD13B691B0903F03F027B685F
:10569000DB6A9A4222D1FB68C3F308027B681B6B6A
:1056A000013B9A421AD1FB685B0A03F07F027B68D8
:1056B0005B6B013B9A4211D1FB681B0C03F07F022C
:1056C0007B689B6B013B9A4208D1FB681B0E03F081
:1056D0007F027B68DB6B013B9A4201D001232BE008
:1056E000174B5B6BDB08C3F30C033B617B689B6C64
:1056F0003A699A421FD0124BDB6A114A23F0010328
:10570000D362FCF709F9786200BFFCF705F902469D
:105710007B6A9342F9D00A4B5A6B0A4B13407A6862
:10572000926CD200064913434B63054BDB6A044A73
:1057300043F00103D362002318463037BD4680BDD5
:10574000004402580700FFFF80B586B000AF7860C4
:1057500039607B68002B01D101239CE18A4B1B68D7
:1057600003F00F033A689A4210D9874B1B6823F065
:105770000F0285493B6813430B60834B1B6803F0A2
:105780000F033A689A4201D0012384E17B681B68C9
:1057900003F00403002B10D07B681A697B4B9B69D4
:1057A00003F070039A4208D9784B9B6923F070028A
:1057B0007B681B69754913438B617B681B6803F029
:1057C0000803002B10D07B685A69704BDB6903F02B
:1057D00070039A4208D96D4BDB6923F070027B6835
:1057E0005B696A491343CB617B681B6803F0100354
:1057F000002B10D07B689A69644BDB6903F4E0638B
:105800009A4208D9614BDB6923F4E0627B689B69AB
:105810005E491343CB617B681B6803F02003002BB8
:1058200010D07B68DA69594B1B6A03F070039A4207
:1058300008D9564B1B6A23F070027B68DB69534919
:1058400013430B627B681B6803F00203002B10D02C
:105850007B68DA684D4B9B6903F00F039A4208D9C5
:105860004A4B9B6923F00F027B68DB68474913436F
:105870008B617B681B6803F00103002B55D0434B01
:105880009B6923F470627B689B68404913438B617A
:105890007B685B68022B07D13C4B1B6803F4003329
:1058A000002B21D10123F6E07B685B68032B07D135
:1058B000364B1B6803F00073002B15D10123EAE07F
:1058C0007B685B68012B07D1304B1B6803F4807346
:1058D000002B09D10123DEE02C4B1B6803F00403ED
:1058E000002B01D10123D6E0284B1B6923F00702CE
:1058F0007B685B68254913430B61FCF70DF8786101
:105900000AE0FCF709F802467B69D31A41F28832B3
:10591000934201D90323BEE01C4B1B6903F03802FC
:105920007B685B68DB009A42EBD17B681B6803F005
:105930000203002B10D07B68DA68144B9B6903F0DC
:105940000F039A4208D2114B9B6923F00F027B6828
:10595000DB680E4913438B610B4B1B6803F00F038D
:105960003A689A4214D2084B1B6823F00F0206498A
:105970003B6813430B60044B1B6803F00F033A684A
:105980009A4205D0012386E00020005200440258CC
:105990007B681B6803F00403002B10D07B681A6936
:1059A0003F4B9B6903F070039A4208D23C4B9B69C2
:1059B00023F070027B681B69394913438B617B6854
:1059C0001B6803F00803002B10D07B685A69344B26
:1059D000DB6903F070039A4208D2314BDB6923F094
:1059E00070027B685B692E491343CB617B681B683F
:1059F00003F01003002B10D07B689A69284BDB69F9
:105A000003F4E0639A4208D2254BDB6923F4E06299
:105A10007B689B6922491343CB617B681B6803F059
:105A20002003002B10D07B68DA691D4B1B6A03F042
:105A300070039A4208D21A4B1B6A23F070027B68EB
:105A4000DB69174913430B6200F034F80246144B2C
:105A50009B691B0A03F00F031249CB5C03F01F0381
:105A600022FA03F33B610E4B9B6903F00F030D4ACF
:105A7000D35C03F01F033A6922FA03F30A4A136066
:105A80000A4A3B6913600A4B1B681846FBF75EFB2A
:105A90000346FB73FB7B18461837BD4680BD00BF2D
:105AA0000044025844C801080800002404000024EF
:105AB0000C00002480B489B000AFB34B1B6903F025
:105AC0003803182B00F2558101A252F823F000BFD1
:105AD000355B0008735D0008735D0008735D0008A6
